:1000000012C02AC029C028C027C026C025C05BC195
:1000100023C022C021C020C01FC01EC01DC01CC0E4
:100020001BC01AC019C011241FBECFEDCDBF10E0F8
:10003000A0E6B0E0E6EDF7E002C005900D92A4382E
:10004000B107D9F720E0A4E8B0E001C01D92AE3AB4
:10005000B207E1F799D1BDC3D3CFAC0164E070E042
:1000600081E090E0DCD066E070E081E090E09FD03D
:1000700066E070E081E090E0B5D040E050E064E000
:1000800070E081E090E0CBC0CF92DF92EF92FF92E0
:100090000F931F93CF93DF93CDB7DD27CA50CDBF0A
:1000A0007C018AE0E0E6F0E0DE01119601900D921D
:1000B0008A95E1F765E070E081E090E093D007E099
:1000C00010E021E030E02C0F3D1FE20EF31ECC24A7
:1000D000CA94D12CF70180819601281B310987FD34
:1000E0003395C901002E02C0959587950A94E2F7D1
:1000F00081709927B2DF0150110960F765E070E067
:1001000081E090E0C65FCDBFDF91CF911F910F914D
:10011000FF90EF90DF90CF904AC090ED980F9A300B
:1001200028F4992787FD9095C097089580E090E086
:1001300008958A3010F4805D089580E00895009756
:10014000C1F08130910549F427B3062E01C0880F14
:100150000A94EAF7282B27BB0895039751F491B32B
:1001600021E030E0062E01C0220F0A94EAF7922B1C
:1001700091BB08950097D1F08130910551F427B3D8
:10018000062E01C0880F0A94EAF78095822387BB68
:100190000895039759F481B321E030E0062E01C0A1
:1001A000220F0A94EAF72095282321BB089500978F
:1001B000C1F08130910549F428B3062E01C0880FA3
:1001C0000A94EAF7282B28BB0895039751F492B3B9
:1001D00021E030E0062E01C0220F0A94EAF7922BAC
:1001E00092BB08950097D1F08130910551F428B366
:1001F000062E01C0880F0A94EAF78095822388BBF7
:100200000895039759F482B321E030E0062E01C02F
:10021000220F0A94EAF72095282322BB0895452B44
:1002200009F0C5CFDFCFC3CF8130910521F003970F
:1002300069F480B301C086B390E08095909502C0C8
:10024000959587956A95E2F780FD02C081E0089553
:1002500080E0089588E98AB986E083B912B893E30B
:1002600099B910928F0010928E008093900087E0D1
:100270008093910088E08093920089E080939300BE
:1002800008955D9BFECF8CB90895CF93DF93EC0169
:100290008991882311F0F5DFFBCFDF91CF9108958D
:1002A000CF93DF93CDB7DD27C451CDBFDC01CB01A8
:1002B0004AE0BE016F5F7F4F59D2E7DFCC5ECDBF12
:1002C000DF91CF9108951F920F920FB60F921124D4
:1002D0002F933F934F935F936F937F938F939F934E
:1002E000AF93BF93CF93EF93FF93CCB182E5C9DF78
:1002F000CD3021F0CA3011F0C136C1F46AE970E0A6
:1003000080E990E02CD210929A0010929B001092FB
:100310009C0010929D0010929E0010929F001092DF
:10032000A00010928F0010928E000DC080918E0060
:1003300090918F00FC01E656FF4FC0830196909389
:100340008F0080938E0080918E0090918F008A3074
:1003500091052CF00A9790938F0080938E00FF9167
:10036000EF91CF91BF91AF919F918F917F916F91BD
:100370005F914F913F912F910F900FBE0F901F9063
:10038000189560E970E0EBC1CF93DF93CDB7DD271F
:10039000CE51CDBF80EB94E05DDF63E070E083E0A1
:1003A00090E0CDDE60E070E081E090E0C8DE61E0EA
:1003B00070E081E090E0C3DE62E070E081E090E018
:1003C000BEDE63E070E081E090E0B9DE66E070E000
:1003D00083E090E0CFDE64E070E083E090E0CADE8E
:1003E00065E070E083E090E0C5DE66E070E083E009
:1003F00090E019DF64E070E083E090E014DF65E0F6
:1004000070E083E090E00FDF64E070E081E090E076
:1004100096DE65E070E081E090E091DE66E070E0FD
:1004200081E090E08CDE64E070E081E090E0DADE74
:1004300065E070E081E090E0D5DE66E070E081E0AC
:1004400090E0D0DE60E070E081E090E0B0DE61E05E
:1004500070E081E090E0ABDE62E070E081E090E08F
:10046000A6DE63E070E081E090E0A1DE789462E7D0
:1004700070E0CE01019673D1CE01019606DF198E90
:100480001A8E1B8E1C8E1D8A1E8A1F8A188E1D8E28
:100490001E8E212C312CC12CD12C00E010E0E12C3F
:1004A000F12C0115110539F484E890E06ADF8091A0
:1004B0008400E7DE10C0898D805D809384008A8D82
:1004C000805D809385008B8D805D809386008C8D10
:1004D000805D80938700280121E0421A510834E0B2
:1004E0004316510450F5EAE6F0E0DE01119688E08B
:1004F00001900D928A95E1F7E9E1F0E0EC0FFD1F24
:10050000E40DF51D20818D8D8695869590E0820FF6
:10051000911DF201EE0FFF1F21E030E02C0F3D1F77
:10052000E20FF31F608171816F5F7F4FF1D08E8F7B
:10053000F201EC57FF4F805D808354E8852E50E038
:10054000952ECE0145965C01612C712CF4018191B0
:100550004F01E3DD99DDF50181915F01811104C057
:10056000B30181E090E023DE89EF90E00197F1F79D
:1005700000C00000B30181E090E034DE9FEF691A13
:10058000790AE4E06E16710409F7AA24A394B12C49
:10059000812C912C64E070E083E090E045DE8111D5
:1005A00004C032E0632E712C02C0612C712C65E016
:1005B00070E083E090E038DE21E030E0882311F045
:1005C00020E030E0620E731EA614B70421F4FFEFA2
:1005D0008F1A9F0A04C021E0821A9108530135E066
:1005E00083169104BCF22A143B0469F0220C331CDC
:1005F0002A243B2421FE03C02D8D2F5F0DC03D8D8D
:1006000031503D8F0AC0A114B10439F48D8D83702F
:1006100021F02D8D2C7F2C5F2D8FC114D104D1F4AE
:1006200066E070E083E090E0FFDD81111CC034E003
:100630004316510440F4E8E1F0E0EC0FFD1FE00F39
:10064000F11F2E8D20830F5F1F4F1D8E1E8ECC2419
:10065000C394D12CEFEFCE1ADE0AF2E3CF16D10409
:1006600014F0C12CD12CC80166E070E051D04C01CF
:100670008C0185309105E9F4C70164E670E048D04B
:100680000197B9F46D8D6695669570E080E090E015
:1006900007DE62E870E0CE01019661D0CE010196DE
:1006A000F4DD6FE770E0CE01019659D0CE010196DE
:1006B000ECDD94012150310924303105C8F4C70123
:1006C00062E370E025D0FE01759640E050E04217ED
:1006D000530731F4893191051CF461E0608301C056
:1006E00010824F5F5F4F31964430510581F704C04F
:1006F0001D8A1E8A1F8A188E84E6E816F10424F0EB
:10070000E12CF12C1501CDCE9FEFE91AF90AFACFB1
:1007100097FB072E16F4009406D077FD08D00BD077
:1007200007FC05D03EF4909581959F4F08957095F4
:1007300061957F4F0895AA1BBB1B51E107C0AA1FFB
:10074000BB1FA617B70710F0A61BB70B881F991F72
:100750005A95A9F780959095BC01CD010895FB01AC
:10076000DC0101900D920020E1F70895BB274A308B
:1007700031F4992322F4BDE2909581959F4F01C0F9
:10078000BB27FB015527AA27880F991FAA1FA4176B
:1007900010F0A41B83955051B9F7A05DAA3308F05F
:1007A000A95DA193009779F7B111B1931192CB0193
:1007B00000C0DC01FC01672F71917723E1F73297CC
:1007C00004C07C916D9370836291AE17BF07C8F32C
:0607D0000895F894FFCF2C
:1007D600EB28B3BA78DADBE8FBFA02000900050079
:1007E600090048656565656565656565656C6F0DD8
:0407F6000A002C00C9
:00000001FF
