:1000000012C02AC029C028C027C026C025C0DCC114
:1000100023C022C021C020C01FC01EC01DC01CC0E4
:100020001BC01AC019C011241FBECFEDCDBF10E0F8
:10003000A0E6B0E0EAE5F7E002C005900D92AC372B
:10004000B107D9F720E0ACE7B0E001C01D92A43CB5
:10005000B207E1F7F9D17FC3D3CFAC0164E070E020
:1000600081E090E045D166E070E081E090E008D169
:1000700066E070E081E090E01ED140E050E064E096
:1000800070E081E090E034C1EF92FF920F931F93F4
:10009000CF93DF93CDB7DD27CA50CDBF7C018AE077
:1000A000E0E6F0E0DE01119601900D928A95E1F70D
:1000B00065E070E081E090E0FED007E010E081E0D4
:1000C00090E08C0F9D1FE80EF91EF70180819927A3
:1000D00087FD9095002E02C0959587950A94E2F7CA
:1000E00081709927BADF0150110978F765E070E057
:1000F00081E090E0C65FCDBFDF91CF911F910F915E
:10010000FF90EF90BDC090ED980F9A3028F499279A
:1001100087FD9095C097089580E090E008958A301B
:1001200010F4805D089580E0089580EB94E0FBD0AA
:1001300085E380937C0081E380937D0084E380935A
:100140007E0088E380937F0060E070E081E090E0D3
:100150005FD061E070E081E090E05AD062E070E052
:1001600081E090E055D063E070E081E090E050D015
:1001700066E070E083E090E066D064E070E083E0E9
:1001800090E061D065E070E083E090E05CD066E0F4
:1001900070E083E090E0B0D064E070E083E090E055
:1001A000ABD065E070E083E090E0A6D064E070E062
:1001B00081E090E02DD065E070E081E090E028D013
:1001C00066E070E081E090E023D064E070E081E0E0
:1001D00090E071D065E070E081E090E06CD066E086
:1001E00070E081E090E067D060E070E081E090E056
:1001F00047D061E070E081E090E042D062E070E0E2
:1002000081E090E03DD063E070E081E090E038C0B4
:100210000097C1F08130910549F427B3062E01C043
:10022000880F0A94EAF7282B27BB0895039751F407
:1002300091B321E030E0062E01C0220F0A94EAF7C4
:10024000922B91BB08950097D1F08130910551F424
:1002500027B3062E01C0880F0A94EAF780958223FF
:1002600087BB0895039759F481B321E030E0062E4F
:1002700001C0220F0A94EAF72095282321BB089594
:100280000097C1F08130910549F428B3062E01C0D2
:10029000880F0A94EAF7282B28BB0895039751F496
:1002A00092B321E030E0062E01C0220F0A94EAF753
:1002B000922B92BB08950097D1F08130910551F4B3
:1002C00028B3062E01C0880F0A94EAF7809582238E
:1002D00088BB0895039759F482B321E030E0062EDD
:1002E00001C0220F0A94EAF72095282322BB089523
:1002F000452B09F0C5CFDFCFC3CF8130910521F069
:10030000039769F480B301C086B390E0809590951F
:1003100002C0959587956A95E2F780FD02C081E05D
:10032000089580E0089588E98AB986E083B912B813
:1003300093E399B910928700109286008093880009
:1003400087E08093890088E080938A0089E0809329
:100350008B0008955D9BFECF8CB90895CF93DF93FA
:10036000EC018991882311F0F5DFFBCFDF91CF916C
:100370000895CF93DF93CDB7DD27C451CDBFDC0106
:10038000CB014AE0BE016F5F7F4FB2D1E7DFCC5EA9
:10039000CDBFDF91CF91089568E870E0A2C1809150
:1003A000860090918700843191052CF044979093BA
:1003B0008700809386000895ECE9F0E0119280E0D8
:1003C000E03BF807D9F708951F920F920FB60F92EE
:1003D00011242F933F934F935F936F937F938F934A
:1003E0009F93AF93BF93EF93FF932CB12D3011F0F8
:1003F0002A3059F46CE970E088E890E072D1DCDFD3
:1004000010928700109286000DC080918600909116
:100410008700FC01E456FF4F2083019690938700EC
:1004200080938600BCDFFF91EF91BF91AF919F91C8
:100430008F917F916F915F914F913F912F910F908D
:100440000FBE0F901F901895CF93DF93CDB7DD2788
:10045000CE51CDBF6ADE78946AE670E0CE01019697
:1004600040D1CE0101967ADFCE0145969E8F8D8FC9
:1004700088E0ED8DFE8D11928A95E9F700E010E09D
:10048000212C312CC12CD12C412C512CE12CF12CC4
:100490005CE7A52E50E0B52ECE0145964C01612CAF
:1004A000712C95E090937C00E1E0E0937D00F6E014
:1004B000F0937E0083E080937F00F50181915F01DE
:1004C00022DEE2DDF401819191914F01892B21F42B
:1004D000B30181E090E0D4DE89EF90E00197F1F77D
:1004E00000C00000B30181E090E0E5DE9FEF691AF3
:1004F000790AE4E06E167104A1F6AA24A394B12C43
:10050000812C912C64E070E083E090E0F6DE8111B4
:1005100004C032E0632E712C02C0612C712C65E0A6
:1005200070E083E090E0E9DE21E030E0882311F024
:1005300020E030E0620E731EA614B70421F4FFEF32
:100540008F1A9F0A04C081E0881A9108530195E030
:1005500089169104BCF22A143B0461F0220C331C6E
:100560002A243B2421FE03C00F5F1F4F19C00150F6
:10057000110916C0A114B10499F4C8018370992718
:10058000009771F0101611062CF4081B190B0C5F64
:100590001F4F06C0C80164E070E07CD0081B190B37
:1005A000C114D10479F466E070E083E090E0A5DE48
:1005B000811111C0EFEF4E1A5E0A00E010E0CC246A
:1005C000C394D12C9FEFC91AD90AE2E3CE16D10405
:1005D00014F0C12CD12CC20166E070E05BD04C015C
:1005E0002C01C70164E670E055D00197E9F4C80119
:1005F00017FD0396BC0175956795759567958827D6
:1006000077FD8095982FB5DE6AE770E0CE01019600
:1006100068D0CE010196A2DE67E770E0CE010196B8
:1006200060D0CE0101969ADE940121503109243028
:100630003105E0F4C70162E370E02CD0FE0175964D
:1006400040E050E061E070E04217530731F4893137
:1006500091051CF47183608302C0118210824F5F88
:100660005F4F32964430510579F708C01E8A1D8AC3
:10067000188E1F8A1A8E198E1C8E1B8EF4E6EF16AA
:10068000F10424F0E12CF12C150102CF8FEFE81AD0
:10069000F80AFACF97FB072E16F4009406D077FDE0
:1006A00008D00BD007FC05D03EF4909581959F4F64
:1006B0000895709561957F4F0895AA1BBB1B51E16A
:1006C00007C0AA1FBB1FA617B70710F0A61BB70BC2
:1006D000881F991F5A95A9F780959095BC01CD0167
:1006E0000895FB01DC0101900D920020E1F70895CF
:1006F000BB274A3031F4992322F4BDE290958195CD
:100700009F4F01C0BB27FB015527AA27880F991FC0
:10071000AA1FA41710F0A41B83955051B9F7A05D30
:10072000AA3308F0A95DA193009779F7B111B193AD
:100730001192CB0100C0DC01FC01672F719177237E
:10074000E1F7329704C07C916D9370836291AE178C
:0A075000BF07C8F30895F894FFCF27
:10075A00EB28B3BA78DADBE8FBFA486565656565C4
:0C076A0065656565656C6F0D0A002C006C
:00000001FF
