:1000000012C02AC029C028C027C026C025C024C1CC
:1000100023C022C021C020C01FC01EC01DC01CC0E4
:100020001BC01AC019C011241FBECFEDCDBF10E0F8
:10003000A0E6B0E0E6E6F4E002C005900D92AA3634
:10004000B107D9F720E0AAE6B0E001C01D92AE3AB0
:10005000B207E1F78AD105C2D3CFAC0164E070E00A
:1000600081E090E0C4D066E070E081E090E08BD069
:1000700066E070E081E090E09FD040E050E064E016
:1000800070E081E090E0B3C0EF92FF920F931F9376
:10009000CF93DF93CDB7DD27CA50CDBF7C018AE077
:1000A000E0E6F0E0DE01119601900D928A95E1F70D
:1000B00065E070E081E090E07FD007E010E081E053
:1000C00090E08C0F9D1FE80EF91EF7018081082E2D
:1000D000000C990B002E02C0959587950A94E2F7C3
:1000E00081709927BADF0150110978F765E070E057
:1000F00081E090E0C65FCDBFDF91CF911F910F915E
:10010000FF90EF9040C090ED980F9A3028F4082EA1
:10011000000C990BC097089580E090E00895009737
:10012000B1F08130910541F427B301C0880F6A9581
:10013000EAF7822B87BB0895039749F421B381E046
:1001400090E001C0880F6A95EAF7822B81BB089581
:100150000097C1F08130910549F427B301C0880FA1
:100160006A95EAF78095822387BB0895039751F437
:1001700021B381E090E001C0880F6A95EAF780958D
:10018000822381BB08950097B1F08130910541F43D
:1001900028B301C0880F6A95EAF7822B88BB0895BF
:1001A000039749F422B381E090E001C0880F6A957B
:1001B000EAF7822B82BB08950097C1F08130910548
:1001C00049F428B301C0880F6A95EAF78095822325
:1001D00088BB0895039751F422B381E090E001C0F9
:1001E000880F6A95EAF78095822382BB0895452B94
:1001F00009F0C9CFE1CFC7CF8130910521F0039736
:1002000079F480B301C086B390E08095909502C0E8
:10021000959587956A95E2F721E082278170089588
:1002200081E0089588E98AB986E083B912B883E34A
:1002300089B91092AD001092AC0081E090E09093EB
:10024000AB008093AA001092950010929400E6E90A
:10025000F0E01082118208951F920F920FB60F9254
:1002600011242F933F934F936F937F938F939F937B
:10027000EF93FF934CB1809194009091950041369B
:10028000C1F42091AA003091AB00B9016F5F7F4F9C
:100290007093AD006093AC009093AB008093AA0084
:1002A0006817790731F42E5F3F4F3093AD002093EC
:1002B000AC00FC01EA56FF4F40839C012F5F3F4F8B
:1002C000243131052CF4309395002093940005C01F
:1002D000439790939500809394008091AC00909107
:1002E000AD00843191052CF044979093AD0080933C
:1002F000AC008091AA009091AB00843191052CF064
:1003000044979093AB008093AA00FF91EF919F9147
:100310008F917F916F914F913F912F910F900FBED1
:100320000F901F901895CF93DF93CDB7DD27C45161
:10033000CDBF2091AC003091AD004091AA0050910A
:10034000AB00FE013196BF01D901AA56BF4FAC9157
:10035000A1932417350719F02F5F3F4FF5CF7AD0BF
:10036000CC5ECDBFDF91CF91089580EB94E05ADF52
:1003700089E380936C0080E380936D0084E3809335
:100380006E0087E380936F0060E070E081E090E0B2
:10039000C6DE61E070E081E090E0C1DE62E070E026
:1003A00081E090E0BCDE63E070E081E090E0B7DEE9
:1003B00064E070E081E090E0B2DE65E070E081E052
:1003C00090E0ADDE66E070E081E090E0A8DE64E001
:1003D00070E081E090E0F0DE65E070E081E090E0C8
:1003E000EBDE66E070E081E090E0E6DE60E070E089
:1003F00081E090E0C8DE61E070E081E090E0C3DE83
:1004000062E070E081E090E0BEDE63E070E081E0F9
:1004100090E0B9DE78948CE690E085DF0CE610E0A1
:10042000C0E0D0E0F80181918F016DDE2DDEBE01CC
:1004300081E090E0C1DE89EF90E00197F1F700C024
:100440000000BE0181E090E09EDE2196C430D1051F
:1004500049F7E1CFFB01DC0101900D920020E1F7AB
:060460000895F894FFCF9F
:0A046600EB28B3BA78DADBE8FBFA02
:00000001FF
