:1000000012C02AC029C028C027C026C025C0D7C119
:1000100023C022C021C020C01FC01EC01DC01CC0E4
:100020001BC01AC019C011241FBECFEDCDBF10E0F8
:10003000A0E6B0E0E8ECF7E002C005900D92A4382D
:10004000B107D9F720E0A4E8B0E001C01D92AC3CB4
:10005000B207E1F700D2B6C3D3CFAC0164E070E0E1
:1000600081E090E048D166E070E081E090E00BD163
:1000700066E070E081E090E021D140E050E064E093
:1000800070E081E090E037C1CF92DF92EF92FF9273
:100090000F931F93CF93DF93CDB7DD27CA50CDBF0A
:1000A0007C018AE0E0E6F0E0DE01119601900D921D
:1000B0008A95E1F765E070E081E090E0FFD007E02D
:1000C00010E021E030E02C0F3D1FE20EF31ECC24A7
:1000D000CA94D12CF70180819601281B310987FD34
:1000E0003395C901002E02C0959587950A94E2F7D1
:1000F00081709927B2DF0150110960F765E070E067
:1001000081E090E0C65FCDBFDF91CF911F910F914D
:10011000FF90EF90DF90CF90B6C090ED980F9A309F
:1001200028F4992787FD9095C097089580E090E086
:1001300008958A3010F4805D089580E0089580EB82
:1001400094E0F4D063E070E083E090E064D060E09D
:1001500070E081E090E05FD061E070E081E090E0ED
:100160005AD062E070E081E090E055D063E070E04A
:1001700081E090E050D066E070E083E090E066D0EF
:1001800064E070E083E090E061D065E070E083E0DF
:1001900090E05CD066E070E083E090E0B0D064E096
:1001A00070E083E090E0ABD065E070E083E090E049
:1001B000A6D064E070E081E090E02DD065E070E0D2
:1001C00081E090E028D066E070E081E090E023D00C
:1001D00064E070E081E090E071D065E070E081E083
:1001E00090E06CD066E070E081E090E067D060E085
:1001F00070E081E090E047D061E070E081E090E065
:1002000042D062E070E081E090E03DD063E070E0D9
:1002100081E090E038C00097C1F08130910549F449
:1002200027B3062E01C0880F0A94EAF7282B27BBB4
:100230000895039751F491B321E030E0062E01C0F8
:10024000220F0A94EAF7922B91BB08950097D1F000
:100250008130910551F427B3062E01C0880F0A940E
:10026000EAF78095822387BB0895039759F481B3F9
:1002700021E030E0062E01C0220F0A94EAF7209513
:10028000282321BB08950097C1F08130910549F4DE
:1002900028B3062E01C0880F0A94EAF7282B28BB42
:1002A0000895039751F492B321E030E0062E01C087
:1002B000220F0A94EAF7922B92BB08950097D1F08F
:1002C0008130910551F428B3062E01C0880F0A949D
:1002D000EAF78095822388BB0895039759F482B387
:1002E00021E030E0062E01C0220F0A94EAF72095A3
:1002F000282322BB0895452B09F0C5CFDFCFC3CFFC
:100300008130910521F0039769F480B301C086B371
:1003100090E08095909502C0959587956A95E2F753
:1003200080FD02C081E0089580E0089588E98AB9DF
:1003300086E083B912B893E399B910928F001092B6
:100340008E008093900087E08093910088E08093F6
:10035000920089E08093930008955D9BFECF8CB955
:100360000895CF93DF93EC018991882311F0F5DF95
:10037000FBCFDF91CF910895CF93DF93CDB7DD27EA
:10038000C451CDBFDC01CB014AE0BE016F5F7F4F9E
:10039000E6D1E7DFCC5ECDBFDF91CF91089560E974
:1003A00070E0D6C180918E0090918F0084319105CC
:1003B0002CF0449790938F0080938E0008951F92A5
:1003C0000F920FB60F9211242F933F934F935F9389
:1003D0006F937F938F939F93AF93BF93CF93EF933D
:1003E000FF93CCB182E5B9DFCD3021F0CA3011F0F6
:1003F000C13689F464EA70E080E990E0A9D1E4EACA
:10040000F0E0119280E0E83BF807D9F710928F00F6
:1004100010928E000DC080918E0090918F00FC0193
:10042000EC55FF4FC083019690938F0080938E0010
:10043000B9DFFF91EF91CF91BF91AF919F918F91D4
:100440007F916F915F914F913F912F910F900FBED0
:100450000F901F901895CF93DF93CDB7DD27CE5126
:10046000CDBF6DDE789462E770E0CE01019670D169
:10047000CE01019676DF198E1A8E1B8E1C8E1D8A78
:100480001E8A1F8A188E1D8E1E8E212C312CC12C87
:10049000D12C00E010E0E12CF12C0115110521F424
:1004A00084E890E07CDF10C0898D805D80938400BB
:1004B0008A8D805D809385008B8D805D8093860022
:1004C0008C8D805D80938700280121E0421A5108BD
:1004D00034E04316510450F5EAE6F0E0DE011196EF
:1004E00088E001900D928A95E1F7E9E1F0E0EC0FE8
:1004F000FD1FE40DF51D20818D8D8695869590E07C
:10050000820F911DF201EE0FFF1F21E030E02C0F52
:100510003D1FE20FF31F608171816F5F7F4FF1D04C
:100520008E8FF201EC57FF4F805D808354E8852E5B
:1005300050E0952ECE0145965C01612C712CF401A2
:1005400081914F01EADDA0DDF50181915F0181110B
:1005500004C0B30181E090E096DE89EF90E001975E
:10056000F1F700C00000B30181E090E0A7DE9FEF4B
:10057000691A790AE4E06E16710409F7AA24A394B3
:10058000B12C812C912C64E070E083E090E0B8DE27
:10059000811104C032E0632E712C02C0612C712CD9
:1005A00065E070E083E090E0ABDE21E030E088239E
:1005B00011F020E030E0620E731EA614B70421F49F
:1005C000FFEF8F1A9F0A04C021E0821A910853019D
:1005D00035E083169104BCF22A143B0469F0220C26
:1005E000331C2A243B2421FE03C02D8D2F5F0DC018
:1005F0003D8D31503D8F0AC0A114B10439F48D8D69
:10060000837021F02D8D2C7F2C5F2D8FC114D10490
:10061000D1F466E070E083E090E072DE81111CC0EE
:1006200034E04316510440F4E8E1F0E0EC0FFD1F24
:10063000E00FF11F2E8D20830F5F1F4F1D8E1E8E2A
:10064000CC24C394D12CEFEFCE1ADE0AF2E3CF16FE
:10065000D10414F0C12CD12CC80166E070E051D057
:100660004C018C0185309105E9F4C70164E670E026
:1006700048D00197B9F46D8D6695669570E080E07D
:1006800090E07ADE62E870E0CE01019661D0CE01A2
:10069000019667DE6FE770E0CE01019659D0CE017A
:1006A00001965FDE94012150310924303105C8F4F0
:1006B000C70162E370E025D0FE01759640E050E08E
:1006C0004217530731F4893191051CF461E06083CE
:1006D00001C010824F5F5F4F31964430510581F762
:1006E00004C01D8A1E8A1F8A188E84E6E816F1044B
:1006F00024F0E12CF12C1501D0CE9FEFE91AF90A74
:10070000FACF97FB072E16F4009406D077FD08D099
:100710000BD007FC05D03EF4909581959F4F08952E
:10072000709561957F4F0895AA1BBB1B51E107C0CF
:10073000AA1FBB1FA617B70710F0A61BB70B881F71
:10074000991F5A95A9F780959095BC01CD01089500
:10075000FB01DC0101900D920020E1F70895BB2719
:100760004A3031F4992322F4BDE2909581959F4F50
:1007700001C0BB27FB015527AA27880F991FAA1F75
:10078000A41710F0A41B83955051B9F7A05DAA33AC
:1007900008F0A95DA193009779F7B111B193119277
:1007A000CB0100C0DC01FC01672F71917723E1F7D9
:1007B000329704C07C916D9370836291AE17BF072E
:0807C000C8F30895F894FFCF7F
:1007C800EB28B3BA78DADBE8FBFA02000900050087
:1007D800090048656565656565656565656C6F0DE6
:0407E8000A002C00D7
:00000001FF
